:03000000020030CB
:0300030002009167
:03000B0002018669
:03001300020127C0
:1000300075A887D288D28A758901C28C75600075CF
:100040005F00759000787F7919760018D9FB9001D0
:10005000BE75617FA861759000E693F5A075900864
:100060001201B918759000E693F5A0C2A07590042E
:100070001201B918759000E693F5A075900212016F
:10008000B918759000E693F5A07590011201B9803A
:10009000C3C2AFC2A8C0E0C000E560B40011D28CFA
:1000A000756001787F7919760018D9FB02011CB4BC
:1000B0000113787AA67F18A67E18A67D18A67C75EF
:1000C000600202011CB402137876A67F18A67E187F
:1000D000A67D18A67C75600302011CB40313787218
:1000E000A67F18A67E18A67D18A67C75600402015E
:1000F0001CB40413786EA67F18A67E18A67D18A6D9
:100100007C75600502011CB4050FC28C786AA67F5D
:1001100018A67E18A67D18A67C756000D000D0E0D9
:10012000C289D2A8D2AF32C0E0C2AFC2AAE55FB4E2
:100130000009755F0175617A02017DB40109755F7F
:100140000275617602017DB40209755F0375617203
:1001500002017DB40309755F0475616E02017DB40F
:100160000409755F0575616A02017D755F00757F21
:0A01700000757E00757D00757C00AF
:10017A0075617FC28BD2AAD2AFD0E032C0E0758C53
:10018A00D8758AF0057CE57CB40A21757C00057D6A
:10019A00E57DB40A17757D00057EE57EB40A0D7506
:1001AA007E00057FE57FB40A03757F00D0E0327FC9
:0E01BA00C8DFFE22039F250D9949411F010950
:00000001FF
