:100000007581307C647D007A007B0051EA51DA71A1
:1000100045EEB57D028006AE7DD2027A000ABA02B4
:1000200002C2020BBB2D027B007F28BD0004317889
:10003000800231671153315B113EDFEF80D1C0E0A8
:10004000E57DB4000BE57EB52206E57FB5230122F0
:10005000D0E022C0E030003120A00E7C64C201C29A
:10006000000DBD072F7D00802B20A10C7C64D201E8
:10007000C2001197711C801C20A20C7C64D201C2AA
:100080000011FA711C800D800B30A00830A20530E1
:10009000A102D200D0E022C0E0D201BD010EE57D78
:1000A0002401D4B460027400F57D711CBD020CE51E
:1000B0007E2401D4B460027400F57EBD030CE57F9C
:1000C0002401D4B424027400F57FBD040CE57B2424
:1000D00001D4B432027401F57BBD050CE57A24012C
:1000E000D4B413027401F57ABD0607E5792401D46E
:1000F000F579BD0102711CD0E022C0E0D201BD0142
:100100000EE57D2499D4B499027459F57D711CBD16
:10011000020CE57E2499D4B499027459F57EBD038E
:100120000CE57F2499D4B499027423F57FBD040BA8
:0B013000E57B2499D470027431F57B4C
:10013B00BD050BE57A2499D470027412F57ABD06CD
:10014B0007E5792499D4F579BD0102711CD0E02221
:10015B00BD00028006DC047C64B20122C0E0EDB479
:10016B0004005004318980025119D0E022C0E0EB29
:10017B00B423005004318980025119D0E022E57F6D
:10018B00C4540F51A1F580BD03033001037590FEDC
:10019B0051B27590FFE57F540F51A1F580A20292E9
:1001AB0087BD03033001037590FD51B27590FFE5D8
:1001BB007EC4540F51A1F580BD020330010375902D
:1001CB00FB51B27590FFE57E540F51A1F580A20251
:1001DB009287BD02033001037590F751B27590FF02
:1001EB00E57DC4540F51A1F580BD010330010375AA
:1001FB0090EF51B27590FFE57D540F51A1F580BD85
:10020B0001033001037590DF51B27590FF22E57B3E
:10021B00C4540F51A1F580BD04033001037590FE4A
:10022B0051B27590FFE57B540F51A1F580BD0403CE
:10023B003001037590FD51B27590FFE57AC4540FF0
:10024B0051A1F580BD05033001037590FB51B275CB
:10025B0090FFE57A540F51A1F580BD0503300103E2
:10026B007590F751B27590FFE579C4540F51A1F514
:0F027B0080BD06033001037590EF51B27590FFFF
:10028A00E579540F51A1F580BD060330010375903D
:10029A00DF51B27590FF229002A69322C0F9A4B052
:1002AA00999282F88090FFC6C000C001790278FA5C
:1002BA00D8FED9FAD001D00022C0E0716E74D07194
:1002CA007F7408717FE522717FE523717FD0E02278
:1002DA00C0047C0871AFF5227C0971AFF523D00404
:1002EA00C0E0C0F0716E74D0717F7400717F716E5E
:1002FA0074D1717F719930E712C2E7F5F0716E74AB
:10030A00D0717F7400717FE5F0717F7177D0F0D082
:10031A00E022716E74D0717F7400717FE57D717F08
:10032A00E57E717FE57F717FE57C717FE57B717F7B
:10033A00E57A717FE579717F717722C0047C00715B
:10034A00AFF57D7C0171AFF57E7C0271AFF57F7CE4
:10035A000471AFF57B7C0571AFF57A7C0671AFF558
:10036A0079D00422D2B7D2B6C2B7C2B622C2B7D2A5
:10037A00B600D2B722C000337808C2B692B700D20C
:10038A00B6C2B633D8F4D2B7D2B6C2B6D00022C0FB
:10039A00077F08D2B6A2B7C2B633DFF7D2B7D2B652
:0C03AA00C2B6D00722716E74D0717FECD7
:0D03B600717F716E74D1717F719971772222
:00000001FF
